:100000000C9462000C948A000C948A000C948A0070
:100010000C948A000C948A000C948A000C948A0038
:100020000C948A000C948A000C948A000C948A0028
:100030000C948A000C948A000C948A000C948A0018
:100040000C9489040C948A000C9457040C94310489
:100050000C948A000C948A000C948A000C948A00F8
:100060000C948A000C948A000000000024002700F1
:100070002A0000000000250028002B0000000008D6
:10008000000201000003040700000000000000005F
:1000900000000000230026002900040404040404D6
:1000A0000404020202020202030303030303010227
:1000B00004081020408001020408102001020408F6
:1000C0001020BB0611241FBECFEFD8E0DEBFCDBF8E
:1000D00011E0A0E0B1E0E8EEF2E102C005900D927F
:1000E000A838B107D9F722E0A8E8B1E001C01D9215
:1000F000A033B207E1F710E0C2E6D0E004C02197D8
:10010000FE010E946C09C136D107C9F70E9418058B
:100110000C9472090C940000AF92BF92CF92DF92C0
:10012000EF92FF920F931F93CF93DF936C017B01AC
:100130008B01040F151FEB015E01AE18BF08C0173D
:10014000D10759F06991D601ED91FC910190F081B0
:10015000E02DC6010995892B79F7C501DF91CF9173
:100160001F910F91FF90EF90DF90CF90BF90AF90D5
:100170000895FC01538D448D252F30E0842F90E0AD
:10018000821B930B541710F0CF9608950197089592
:10019000FC01918D828D981761F0A28DAE0FBF2F5B
:1001A000B11D5D968C91928D9F5F9F73928F90E0B1
:1001B00008958FEF9FEF0895FC01918D828D981720
:1001C00031F0828DE80FF11D858D90E008958FEF5D
:1001D0009FEF0895FC01918D228D892F90E0805C26
:1001E0009F4F821B91098F739927089583E991E0AE
:1001F0000E94EA0021E0892B09F420E0822F089573
:1002000080E090E0892B29F00E94F60081110C9487
:1002100000000895FC01A48DA80FB92FB11DA35AA9
:10022000BF4F2C91848D90E001968F739927848F16
:10023000A689B7892C93A089B1898C918370806439
:100240008C93938D848D981306C00288F389E02DDA
:1002500080818F7D80830895EF92FF920F931F938B
:10026000CF93DF93EC0181E0888F9B8D8C8D981369
:100270001AC0E889F989808185FF15C09FB7F89475
:10028000EE89FF896083E889F989808183708064C1
:1002900080839FBF81E090E0DF91CF911F910F910C
:1002A000FF90EF900895F62E0B8D10E00F5F1F4F1B
:1002B0000F731127E02E8C8D8E110CC00FB607FC2A
:1002C000FACFE889F989808185FFF5CFCE010E94B8
:1002D0000A01F1CFEB8DEC0FFD2FF11DE35AFF4F1B
:1002E000F0829FB7F8940B8FEA89FB898081806246
:1002F000CFCFCF93DF93EC01888D8823B9F0AA8903
:10030000BB89E889F9898C9185FD03C0808186FDD0
:100310000DC00FB607FCF7CF8C9185FFF2CF80811F
:1003200085FFEDCFCE010E940A01E9CFDF91CF9189
:100330000895833081F028F4813099F08230A9F05B
:1003400008958730A9F08830C9F08430B1F48091E5
:1003500080008F7D03C0809180008F778093800024
:10036000089584B58F7784BD089584B58F7DFBCFC4
:100370008091B0008F778093B00008958091B00095
:100380008F7DF9CFCF93DF93282F30E0F901E45828
:10039000FF4F8491F901E255FF4FD491F901E656E0
:1003A000FF4FC491CC23A1F081110E949901EC2F41
:1003B000F0E0EE0FFF1FE057FF4FA591B491EC91D5
:1003C000ED2381E090E009F480E0DF91CF91089582
:1003D00080E090E0FACF1F93CF93DF93282F30E097
:1003E000F901E458FF4F8491F901E255FF4FD49190
:1003F000F901E656FF4FC491CC23A9F0162F8111C5
:100400000E949901EC2FF0E0EE0FFF1FEE58FF4F16
:10041000A591B4918FB7F894EC91111108C0D095C3
:10042000DE23DC938FBFDF91CF911F910895DE2BE8
:10043000F8CFCF93DF9390E0FC01E255FF4F24917A
:1004400086569F4FFC0184918823D1F090E0880F5D
:10045000991FFC01E859FF4FA591B491FC01EE589A
:10046000FF4FC591D49161110EC09FB7F8948C9144
:10047000E22FE0958E238C932881E223E8839FBFAF
:10048000DF91CF9108958FB7F894EC91E22BEC9324
:100490008FBFF6CF3FB7F89480918D0190918E0178
:1004A000A0918F01B091900126B5A89B05C02F3F68
:1004B00019F00196A11DB11D3FBFBA2FA92F982F8A
:1004C0008827BC01CD01620F711D811D911D42E085
:1004D000660F771F881F991F4A95D1F708958F924D
:1004E0009F92AF92BF92CF92DF92EF92FF920E94C3
:1004F0004A024B015C018AE0C82ED12CE12CF12C80
:100500000E944A02681979098A099B09683E73406A
:1005100081059105A8F321E0C21AD108E108F1088C
:1005200088EE880E83E0981EA11CB11CC114D10472
:10053000E104F10429F7FF90EF90DF90CF90BF9096
:10054000AF909F908F900895FC0101900020E9F7F3
:100550003197AF01481B590BBC0183E991E00C9422
:100560008C008F929F92AF92BF920F931F93CF9365
:10057000DF93CDB7DEB7A1970FB6F894DEBF0FBEFD
:10058000CDBF19A2423008F44AE08E010F5D1F4F23
:10059000842E912CB12CA12CA50194010E942B0931
:1005A000E62FB901CA01EA30F4F4E05DD801EE9318
:1005B0008D01232B242B252B79F790E080E01097D9
:1005C00019F0CD010E94A402A1960FB6F894DEBFE7
:1005D0000FBECDBFDF91CF911F910F91BF90AF9014
:1005E0009F908F900895E95CE1CFCF93DF930E94B5
:1005F000A402EC0182E191E00E94A4028C0F9D1FF5
:10060000DF91CF910895CF92DF92EF92FF92CF9337
:10061000DF9397FF1BC06B017C016DE283E991E0E2
:100620000E942C01EC0166277727CB016C197D090C
:100630008E099F094AE00E94B1028C0F9D1FDF9135
:10064000CF91FF90EF90DF90CF9008954AE0DF9137
:10065000CF91FF90EF90DF90CF900C94B1024F922A
:100660005F926F927F928F929F92AF92BF92CF9242
:10067000DF92EF92FF920F931F93CF936B017C0158
:10068000742EAC019B010E942609882399F085E114
:1006900091E0CF911F910F91FF90EF90DF90CF905D
:1006A000BF90AF909F908F907F906F905F904F9092
:1006B0000C94A40246015701E894B7F82FEF3FEFDE
:1006C0004FE75FE7C501B4010E94260981110DC003
:1006D0002FEF3FEF4FE75FE7C501B4010E945507D9
:1006E00018161CF489E191E0D4CF2FEF3FEF4FE7CC
:1006F0005FE4C701B6010E94B40818161CF48DE12E
:1007000091E0C7CF2FEF3FEF4FE75FECC701B60196
:100710000E94550787FDF3CF20E030E0A901C70113
:10072000B6010E94550710E000E087FF0AC06DE2A5
:1007300083E991E00E942C018C01F7FAF094F7F81C
:10074000F094C0E060E070E080E09FE37C1641F050
:1007500020E030E040E251E40E945A07CF5FF6CF3C
:10076000A70196010E94E9062B013C010E94D307D4
:100770004B015C014AE00E94B1027C01E00EF11ED7
:10078000CC23C1F1C501B4010E9402089B01AC0158
:10079000C301B2010E94E8064B015C016EE283E9ED
:1007A00091E00E942C01E80EF91EC15018F120E0E2
:1007B00030E040E251E4C501B4010E94B9082B01C8
:1007C0003C010E94D3074B01B12CA12C4AE0C5018A
:1007D000B4010E94B102E80EF91EC501B4010E94E5
:1007E00002089B01AC01C301B2010E94E8064B0163
:1007F0005C01DBCFC701CF911F910F91FF90EF906C
:10080000DF90CF90BF90AF909F908F907F906F9030
:100810005F904F9008950F931F9390E0FC01E25575
:10082000FF4F6491FC01E656FF4FE491F0E0EE0FBC
:10083000FF1FE057FF4F8591949100E412E42FE0F1
:1008400030E0462F0E94D3046115710581059105A2
:1008500029F06F5F7F4F8F4F9F4F9F701F910F91B8
:1008600008951F920F920FB60F9211242F933F936A
:100870004F935F936F937F938F939F93AF93BF93A8
:10088000EF93FF9383E991E00E940A01FF91EF91BA
:10089000BF91AF919F918F917F916F915F914F9198
:1008A0003F912F910F900FBE0F901F9018951F92A0
:1008B0000F920FB60F9211242F938F939F93EF9364
:1008C000FF93E091A301F091A4018081E091A9013F
:1008D000F091AA0182FD1BC090818091AC018F5FD5
:1008E0008F732091AD01821741F0E091AC01F0E0EF
:1008F000ED56FE4F958F8093AC01FF91EF919F9144
:100900008F912F910F900FBE0F901F90189580819F
:10091000F4CF1F920F920FB60F9211242F933F9393
:100920008F939F93AF93BF938091890190918A0198
:10093000A0918B01B0918C013091880123E0230FAD
:100940002D3758F50196A11DB11D20938801809384
:10095000890190938A01A0938B01B0938C018091BF
:100960008D0190918E01A0918F01B091900101961F
:10097000A11DB11D80938D0190938E01A0938F01D5
:10098000B0939001BF91AF919F918F913F912F9123
:100990000F900FBE0F901F90189526E8230F029618
:1009A000A11DB11DD2CFCF92DF92EF92FF920F9394
:1009B0001F93E82FF92F05C00150110921093109B2
:1009C00061F1908196239417B9F305C00150110984
:1009D0002109310911F1908196239413F7CFC12C8D
:1009E000D12CE12CF12C0AC08FEFC81AD80AE80AE2
:1009F000F80A0C151D052E053F0579F08081862328
:100A0000841791F36C2D7D2D8E2D9F2D1F910F91AD
:100A1000FF90EF90DF90CF90089560E070E080E06D
:100A200090E01F910F91FF90EF90DF90CF9008958D
:100A3000789484B5826084BD84B5816084BD85B5B9
:100A4000826085BD85B5816085BD80916E008160C5
:100A500080936E001092810080918100826080936B
:100A6000810080918100816080938100809180006D
:100A70008160809380008091B10084608093B10098
:100A80008091B00081608093B00080917A00846092
:100A900080937A0080917A00826080937A008091BE
:100AA0007A00816080937A0080917A0080688093D8
:100AB0007A001092C100E091A301F091A40182E0BC
:100AC0008083E0919F01F091A0011082E091A1014B
:100AD000F091A2018FEC80831092AB01E091A7010D
:100AE000F091A80186E08083E091A501F091A60134
:100AF000808180618083E091A501F091A6018081D1
:100B000088608083E091A501F091A60180818068D2
:100B10008083E091A501F091A60180818F7D808383
:100B200061E08DE00E94190261E08EE00E941902EE
:100B300061E08CE00E94190261E085E00E941902E8
:100B400061E089E00E94190260E088E00E941902D9
:100B500061E08BE00E94190260E08AE00E941902C5
:100B600060E082E00E94190260E083E00E941902C6
:100B700060E084E00E941902CBE9DFE082E0882E89
:100B8000912CA12CB12C00E010E082E00E94C20167
:100B9000019709F050C080919101909192010196C6
:100BA000909392018093910183E00E94C20101978A
:100BB00021F4109292011092910181E291E00E9441
:100BC000A4026091910170919201072E000C880B94
:100BD000990B0E94030382E191E00E94A40280919C
:100BE0009101909192014E9734F188E291E00E9438
:100BF000F50286E491E00E94F5028EE591E00E9404
:100C0000A40242E069ED78ED87ED91E40E942F03A4
:100C100082E191E00E94A4028CE691E00E94A4028D
:100C200042E061E679EC85EA92E40E942F0382E1DA
:100C300091E00E94A40284E00E94C20161E0019759
:100C400009F060E085E00E94EB0161E089E00E942C
:100C5000EB01CE010197F1F760E089E00E94EB0122
:100C600088E00E940B04A50194010E944D09CA016D
:100C7000B9010E9404082DEC3CEC48EE51E40E94BE
:100C80005A070E94CC072B013C010E9403038BE70B
:100C900091E00E94F5020E946F0261E08BE00E94E9
:100CA000EB01CE010197F1F760E08BE00E94EB01D0
:100CB0008AE00E940B04A50194010E944D09CA011B
:100CC000B9010E9404082DEC3CEC48EE51E40E946E
:100CD0005A070E94CC076B017C018EE791E00E94CD
:100CE000A402C701B6010E9403038BE791E00E94B2
:100CF000F5020E946F0281E9481681E058066104FE
:100D0000710424F561E08DE00E94EB0161E08CE06C
:100D10000E94EB0160E081E9C81681E0D806E10499
:100D2000F1040CF461E08EE00E94EB0161E08CE0E4
:100D30000E94EB010115110509F427CF0E94F6006E
:100D4000882309F422CF0E9400001FCF60E08DE0CD
:100D50000E94EB0160E08CE00E94EB0181E9C81683
:100D600081E0D806E104F104ECF260E08EE00E943C
:100D7000EB0160E0DCCFE3E9F1E01382128288EE60
:100D800093E0A0E0B0E084839583A683B78384E0FA
:100D900091E09183808385EC90E09587848784EC53
:100DA00090E09787868780EC90E0918B808B81EC38
:100DB00090E0938B828B82EC90E0958B848B86EC19
:100DC00090E0978B868B118E128E138E148E089561
:100DD0005058BB27AA270E9400070C947A080E944B
:100DE0006C0838F00E94730820F039F49F3F19F422
:100DF00026F40C9469080EF4E095E7FB0C94630864
:100E0000E92F0E948B0858F3BA176207730784070B
:100E1000950720F079F4A6F50C94AD080EF4E09552
:100E20000B2EBA2FA02D0B01B90190010C01CA01A4
:100E3000A0011124FF27591B99F0593F50F4503E4F
:100E400068F11A16F040A22F232F342F4427585F41
:100E5000F3CF469537952795A795F0405395C9F759
:100E60007EF41F16BA0B620B730B840BBAF0915011
:100E7000A1F0FF0FBB1F661F771F881FC2F70EC0B0
:100E8000BA0F621F731F841F48F487957795679583
:100E9000B795F7959E3F08F0B0CF9395880F08F06F
:100EA0009927EE0F9795879508950E943F0808F4BB
:100EB00081E008950E946E070C947A080E947308DE
:100EC00058F00E946C0840F029F45F3F29F00C9420
:100ED000630851110C94AE080C9469080E948B08A9
:100EE00068F39923B1F3552391F3951B550BBB2759
:100EF000AA2762177307840738F09F5F5F4F220F9E
:100F0000331F441FAA1FA9F335D00E2E3AF0E0E894
:100F100032D091505040E695001CCAF72BD0FE2FDE
:100F200029D0660F771F881FBB1F26173707480772
:100F3000AB07B0E809F0BB0B802DBF01FF2793582A
:100F40005F4F3AF09E3F510578F00C9463080C9483
:100F5000AE085F3FE4F3983ED4F3869577956795A6
:100F6000B795F7959F5FC9F7880F911D969587955F
:100F700097F90895E1E0660F771F881FBB1F62177E
:100F800073078407BA0720F0621B730B840BBA0B3C
:100F9000EE1F88F7E09508950E94D3076894B11179
:100FA0000C94AE0808950E94930888F09F5798F01B
:100FB000B92F9927B751B0F0E1F0660F771F881F5E
:100FC000991F1AF0BA95C9F714C0B13091F00E9478
:100FD000AD08B1E008950C94AD08672F782F8827ED
:100FE000B85F39F0B93FCCF3869577956795B3959F
:100FF000D9F73EF490958095709561957F4F8F4F0E
:101000009F4F0895E89409C097FB3EF49095809512
:10101000709561957F4F8F4F9F4F9923A9F0F92FBE
:1010200096E9BB279395F695879577956795B7953C
:10103000F111F8CFFAF4BB0F11F460FF1BC06F5F22
:101040007F4F8F4F9F4F16C0882311F096E911C034
:10105000772321F09EE8872F762F05C0662371F055
:1010600096E8862F70E060E02AF09A95660F771F69
:10107000881FDAF7880F9695879597F90895990F45
:101080000008550FAA0BE0E8FEEF16161706E80752
:10109000F907C0F012161306E407F50798F0621B73
:1010A000730B840B950B39F40A2661F0232B242B48
:1010B000252B21F408950A2609F4A140A6958FEF67
:1010C000811D811D089597F99F6780E870E060E0B9
:1010D00008959FEF80EC089500240A9416161706D1
:1010E00018060906089500240A9412161306140619
:1010F00005060895092E0394000C11F4882352F07C
:10110000BB0F40F4BF2B11F460FF04C06F5F7F4F33
:101110008F4F9F4F089557FD9058440F551F59F01A
:101120005F3F71F04795880F97FB991F61F09F3FD4
:1011300079F087950895121613061406551FF2CFFD
:101140004695F1DF08C0161617061806991FF1CF4D
:1011500086957105610508940895E894BB27662774
:101160007727CB0197F908950E943F0808F48FEF85
:1011700008950E94CC080C947A080E946C0838F0FC
:101180000E94730820F0952311F00C9463080C94CE
:10119000690811240C94AE080E948B0870F3959F87
:1011A000C1F3950F50E0551F629FF001729FBB275E
:1011B000F00DB11D639FAA27F00DB11DAA1F649FFA
:1011C0006627B00DA11D661F829F2227B00DA11DAD
:1011D000621F739FB00DA11D621F839FA00D611D33
:1011E000221F749F3327A00D611D231F849F600D54
:1011F000211D822F762F6A2F11249F5750409AF07D
:10120000F1F088234AF0EE0FFF1FBB1F661F771F08
:10121000881F91505040A9F79E3F510580F00C94D3
:1012200063080C94AE085F3FE4F3983ED4F38695D0
:1012300077956795B795F795E7959F5FC1F7FE2B73
:10124000880F911D9695879597F908950E943F08FC
:10125000880B990B0895A1E21A2EAA1BBB1BFD0156
:101260000DC0AA1FBB1FEE1FFF1FA217B307E40785
:10127000F50720F0A21BB30BE40BF50B661F771FDD
:10128000881F991F1A9469F76095709580959095BD
:101290009B01AC01BD01CF010895052E97FB1EF403
:1012A00000940E94640957FD07D00E942B0907FC97
:1012B00003D04EF40C9464095095409530952195D7
:1012C0003F4F4F4F5F4F0895909580957095619572
:1012D0007F4F8F4F9F4F0895EE0FFF1F0590F491A2
:0812E000E02D0994F894FFCF02
:1012E800000000002C018C00B9007901EA00C80058
:1012F800DC000D0A006E616E00696E66006F76662E
:1013080000436F756E743A00534D532053656E64F5
:10131800696E6720546F202B3838303137373334B3
:101328003634383833004163636964656E74204F1E
:10133800636375727265642E2E2E2E2E21004C6109
:101348007469747564652069733A20004C6F6E6720
:1013580069747564652069733A2000434D006469B7
:081368007374616E63653200CD
:00000001FF
